{
  "_format": "hh-sol-artifact-1",
  "contractName": "NFT",
  "sourceName": "contracts/NFT.sol",
  "abi": [
    {
      "inputs": [
        {
          "internalType": "string",
          "name": "_name",
          "type": "string"
        },
        {
          "internalType": "string",
          "name": "_initBaseURI",
          "type": "string"
        },
        {
          "internalType": "string",
          "name": "_symbol",
          "type": "string"
        },
        {
          "internalType": "string",
          "name": "_initNotRevealedURI",
          "type": "string"
        }
      ],
      "stateMutability": "nonpayable",
      "type": "constructor"
    },
    {
      "anonymous": false,
      "inputs": [
        {
          "indexed": true,
          "internalType": "address",
          "name": "owner",
          "type": "address"
        },
        {
          "indexed": true,
          "internalType": "address",
          "name": "approved",
          "type": "address"
        },
        {
          "indexed": true,
          "internalType": "uint256",
          "name": "tokenId",
          "type": "uint256"
        }
      ],
      "name": "Approval",
      "type": "event"
    },
    {
      "anonymous": false,
      "inputs": [
        {
          "indexed": true,
          "internalType": "address",
          "name": "owner",
          "type": "address"
        },
        {
          "indexed": true,
          "internalType": "address",
          "name": "operator",
          "type": "address"
        },
        {
          "indexed": false,
          "internalType": "bool",
          "name": "approved",
          "type": "bool"
        }
      ],
      "name": "ApprovalForAll",
      "type": "event"
    },
    {
      "anonymous": false,
      "inputs": [
        {
          "indexed": true,
          "internalType": "address",
          "name": "previousOwner",
          "type": "address"
        },
        {
          "indexed": true,
          "internalType": "address",
          "name": "newOwner",
          "type": "address"
        }
      ],
      "name": "OwnershipTransferred",
      "type": "event"
    },
    {
      "anonymous": false,
      "inputs": [
        {
          "indexed": true,
          "internalType": "uint256",
          "name": "supply",
          "type": "uint256"
        }
      ],
      "name": "SupplyChanged",
      "type": "event"
    },
    {
      "anonymous": false,
      "inputs": [
        {
          "indexed": true,
          "internalType": "address",
          "name": "from",
          "type": "address"
        },
        {
          "indexed": true,
          "internalType": "address",
          "name": "to",
          "type": "address"
        },
        {
          "indexed": true,
          "internalType": "uint256",
          "name": "tokenId",
          "type": "uint256"
        }
      ],
      "name": "Transfer",
      "type": "event"
    },
    {
      "inputs": [],
      "name": "NFT_PROVENANCE_HASH",
      "outputs": [
        {
          "internalType": "string",
          "name": "",
          "type": "string"
        }
      ],
      "stateMutability": "view",
      "type": "function"
    },
    {
      "inputs": [
        {
          "internalType": "address",
          "name": "to",
          "type": "address"
        },
        {
          "internalType": "uint256",
          "name": "tokenId",
          "type": "uint256"
        }
      ],
      "name": "approve",
      "outputs": [],
      "stateMutability": "nonpayable",
      "type": "function"
    },
    {
      "inputs": [],
      "name": "availableTokenCount",
      "outputs": [
        {
          "internalType": "uint256",
          "name": "",
          "type": "uint256"
        }
      ],
      "stateMutability": "view",
      "type": "function"
    },
    {
      "inputs": [
        {
          "internalType": "address",
          "name": "owner",
          "type": "address"
        }
      ],
      "name": "balanceOf",
      "outputs": [
        {
          "internalType": "uint256",
          "name": "",
          "type": "uint256"
        }
      ],
      "stateMutability": "view",
      "type": "function"
    },
    {
      "inputs": [],
      "name": "baseExtension",
      "outputs": [
        {
          "internalType": "string",
          "name": "",
          "type": "string"
        }
      ],
      "stateMutability": "view",
      "type": "function"
    },
    {
      "inputs": [],
      "name": "baseURI",
      "outputs": [
        {
          "internalType": "string",
          "name": "",
          "type": "string"
        }
      ],
      "stateMutability": "view",
      "type": "function"
    },
    {
      "inputs": [
        {
          "internalType": "uint256",
          "name": "tokenId",
          "type": "uint256"
        }
      ],
      "name": "getApproved",
      "outputs": [
        {
          "internalType": "address",
          "name": "",
          "type": "address"
        }
      ],
      "stateMutability": "view",
      "type": "function"
    },
    {
      "inputs": [
        {
          "internalType": "address",
          "name": "owner",
          "type": "address"
        },
        {
          "internalType": "address",
          "name": "operator",
          "type": "address"
        }
      ],
      "name": "isApprovedForAll",
      "outputs": [
        {
          "internalType": "bool",
          "name": "",
          "type": "bool"
        }
      ],
      "stateMutability": "view",
      "type": "function"
    },
    {
      "inputs": [],
      "name": "maxMintAmount",
      "outputs": [
        {
          "internalType": "uint256",
          "name": "",
          "type": "uint256"
        }
      ],
      "stateMutability": "view",
      "type": "function"
    },
    {
      "inputs": [],
      "name": "maxSupply",
      "outputs": [
        {
          "internalType": "uint256",
          "name": "",
          "type": "uint256"
        }
      ],
      "stateMutability": "view",
      "type": "function"
    },
    {
      "inputs": [
        {
          "internalType": "address",
          "name": "_to",
          "type": "address"
        },
        {
          "internalType": "uint256",
          "name": "_mintAmount",
          "type": "uint256"
        }
      ],
      "name": "mint",
      "outputs": [],
      "stateMutability": "payable",
      "type": "function"
    },
    {
      "inputs": [],
      "name": "name",
      "outputs": [
        {
          "internalType": "string",
          "name": "",
          "type": "string"
        }
      ],
      "stateMutability": "view",
      "type": "function"
    },
    {
      "inputs": [],
      "name": "notRevealedURI",
      "outputs": [
        {
          "internalType": "string",
          "name": "",
          "type": "string"
        }
      ],
      "stateMutability": "view",
      "type": "function"
    },
    {
      "inputs": [],
      "name": "owner",
      "outputs": [
        {
          "internalType": "address",
          "name": "",
          "type": "address"
        }
      ],
      "stateMutability": "view",
      "type": "function"
    },
    {
      "inputs": [
        {
          "internalType": "uint256",
          "name": "tokenId",
          "type": "uint256"
        }
      ],
      "name": "ownerOf",
      "outputs": [
        {
          "internalType": "address",
          "name": "",
          "type": "address"
        }
      ],
      "stateMutability": "view",
      "type": "function"
    },
    {
      "inputs": [
        {
          "internalType": "bool",
          "name": "_state",
          "type": "bool"
        }
      ],
      "name": "pause",
      "outputs": [],
      "stateMutability": "nonpayable",
      "type": "function"
    },
    {
      "inputs": [],
      "name": "paused",
      "outputs": [
        {
          "internalType": "bool",
          "name": "",
          "type": "bool"
        }
      ],
      "stateMutability": "view",
      "type": "function"
    },
    {
      "inputs": [],
      "name": "price",
      "outputs": [
        {
          "internalType": "uint256",
          "name": "",
          "type": "uint256"
        }
      ],
      "stateMutability": "view",
      "type": "function"
    },
    {
      "inputs": [
        {
          "internalType": "address",
          "name": "_user",
          "type": "address"
        }
      ],
      "name": "removeWhitelistUser",
      "outputs": [],
      "stateMutability": "nonpayable",
      "type": "function"
    },
    {
      "inputs": [],
      "name": "renounceOwnership",
      "outputs": [],
      "stateMutability": "nonpayable",
      "type": "function"
    },
    {
      "inputs": [],
      "name": "revealed",
      "outputs": [
        {
          "internalType": "bool",
          "name": "",
          "type": "bool"
        }
      ],
      "stateMutability": "view",
      "type": "function"
    },
    {
      "inputs": [
        {
          "internalType": "address",
          "name": "from",
          "type": "address"
        },
        {
          "internalType": "address",
          "name": "to",
          "type": "address"
        },
        {
          "internalType": "uint256",
          "name": "tokenId",
          "type": "uint256"
        }
      ],
      "name": "safeTransferFrom",
      "outputs": [],
      "stateMutability": "nonpayable",
      "type": "function"
    },
    {
      "inputs": [
        {
          "internalType": "address",
          "name": "from",
          "type": "address"
        },
        {
          "internalType": "address",
          "name": "to",
          "type": "address"
        },
        {
          "internalType": "uint256",
          "name": "tokenId",
          "type": "uint256"
        },
        {
          "internalType": "bytes",
          "name": "_data",
          "type": "bytes"
        }
      ],
      "name": "safeTransferFrom",
      "outputs": [],
      "stateMutability": "nonpayable",
      "type": "function"
    },
    {
      "inputs": [
        {
          "internalType": "address",
          "name": "operator",
          "type": "address"
        },
        {
          "internalType": "bool",
          "name": "approved",
          "type": "bool"
        }
      ],
      "name": "setApprovalForAll",
      "outputs": [],
      "stateMutability": "nonpayable",
      "type": "function"
    },
    {
      "inputs": [
        {
          "internalType": "string",
          "name": "_baseExtension",
          "type": "string"
        }
      ],
      "name": "setBaseExtension",
      "outputs": [],
      "stateMutability": "nonpayable",
      "type": "function"
    },
    {
      "inputs": [
        {
          "internalType": "string",
          "name": "_newBaseURI",
          "type": "string"
        }
      ],
      "name": "setBaseURI",
      "outputs": [],
      "stateMutability": "nonpayable",
      "type": "function"
    },
    {
      "inputs": [
        {
          "internalType": "uint256",
          "name": "_maxMintAmount",
          "type": "uint256"
        }
      ],
      "name": "setMaxMintAmount",
      "outputs": [],
      "stateMutability": "nonpayable",
      "type": "function"
    },
    {
      "inputs": [
        {
          "internalType": "string",
          "name": "_notRevealedURI",
          "type": "string"
        }
      ],
      "name": "setNotRevealedURI",
      "outputs": [],
      "stateMutability": "nonpayable",
      "type": "function"
    },
    {
      "inputs": [
        {
          "internalType": "uint256",
          "name": "_price",
          "type": "uint256"
        }
      ],
      "name": "setPrice",
      "outputs": [],
      "stateMutability": "nonpayable",
      "type": "function"
    },
    {
      "inputs": [
        {
          "internalType": "bool",
          "name": "_reveal",
          "type": "bool"
        }
      ],
      "name": "setReveal",
      "outputs": [],
      "stateMutability": "nonpayable",
      "type": "function"
    },
    {
      "inputs": [
        {
          "internalType": "bytes4",
          "name": "interfaceId",
          "type": "bytes4"
        }
      ],
      "name": "supportsInterface",
      "outputs": [
        {
          "internalType": "bool",
          "name": "",
          "type": "bool"
        }
      ],
      "stateMutability": "view",
      "type": "function"
    },
    {
      "inputs": [],
      "name": "symbol",
      "outputs": [
        {
          "internalType": "string",
          "name": "",
          "type": "string"
        }
      ],
      "stateMutability": "view",
      "type": "function"
    },
    {
      "inputs": [],
      "name": "tokenCount",
      "outputs": [
        {
          "internalType": "uint256",
          "name": "",
          "type": "uint256"
        }
      ],
      "stateMutability": "view",
      "type": "function"
    },
    {
      "inputs": [
        {
          "internalType": "address",
          "name": "owner",
          "type": "address"
        },
        {
          "internalType": "uint256",
          "name": "index",
          "type": "uint256"
        }
      ],
      "name": "tokenOfOwnerByIndex",
      "outputs": [
        {
          "internalType": "uint256",
          "name": "",
          "type": "uint256"
        }
      ],
      "stateMutability": "view",
      "type": "function"
    },
    {
      "inputs": [
        {
          "internalType": "uint256",
          "name": "tokenId",
          "type": "uint256"
        }
      ],
      "name": "tokenURI",
      "outputs": [
        {
          "internalType": "string",
          "name": "",
          "type": "string"
        }
      ],
      "stateMutability": "view",
      "type": "function"
    },
    {
      "inputs": [],
      "name": "totalSupply",
      "outputs": [
        {
          "internalType": "uint256",
          "name": "",
          "type": "uint256"
        }
      ],
      "stateMutability": "view",
      "type": "function"
    },
    {
      "inputs": [
        {
          "internalType": "address",
          "name": "from",
          "type": "address"
        },
        {
          "internalType": "address",
          "name": "to",
          "type": "address"
        },
        {
          "internalType": "uint256",
          "name": "tokenId",
          "type": "uint256"
        }
      ],
      "name": "transferFrom",
      "outputs": [],
      "stateMutability": "nonpayable",
      "type": "function"
    },
    {
      "inputs": [
        {
          "internalType": "address",
          "name": "newOwner",
          "type": "address"
        }
      ],
      "name": "transferOwnership",
      "outputs": [],
      "stateMutability": "nonpayable",
      "type": "function"
    },
    {
      "inputs": [
        {
          "internalType": "address",
          "name": "_owner",
          "type": "address"
        }
      ],
      "name": "walletOfOwner",
      "outputs": [
        {
          "internalType": "uint256[]",
          "name": "",
          "type": "uint256[]"
        }
      ],
      "stateMutability": "view",
      "type": "function"
    },
    {
      "inputs": [
        {
          "internalType": "address",
          "name": "_user",
          "type": "address"
        }
      ],
      "name": "whitelistUser",
      "outputs": [],
      "stateMutability": "nonpayable",
      "type": "function"
    },
    {
      "inputs": [
        {
          "internalType": "address",
          "name": "",
          "type": "address"
        }
      ],
      "name": "whitelisted",
      "outputs": [
        {
          "internalType": "bool",
          "name": "",
          "type": "bool"
        }
      ],
      "stateMutability": "view",
      "type": "function"
    },
    {
      "inputs": [],
      "name": "withdraw",
      "outputs": [],
      "stateMutability": "nonpayable",
      "type": "function"
    }
  ],
  "bytecode": "0x60806040526040518060400160405280600581526020017f2e6a736f6e000000000000000000000000000000000000000000000000000000815250600c908051906020019062000051929190620003b7565b5066b1a2bc2ec50000600d556014600e556005600f556000601060006101000a81548160ff0219169083151502179055506000601060016101000a81548160ff021916908315150217905550348015620000aa57600080fd5b5060405162004d7d38038062004d7d8339818101604052810190620000d09190620004d9565b600e5460008186858160009080519060200190620000f0929190620003b7565b50806001908051906020019062000109929190620003b7565b5050506200012c620001206200016960201b60201c565b6200017160201b60201c565b806008819055505080600a8190555050506200014e836200023760201b60201c565b6200015f81620002e260201b60201c565b505050506200079c565b600033905090565b6000600660009054906101000a900473ffffffffffffffffffffffffffffffffffffffff16905081600660006101000a81548173ffffffffffffffffffffffffffffffffffffffff021916908373ffffffffffffffffffffffffffffffffffffffff1602179055508173ffffffffffffffffffffffffffffffffffffffff168173ffffffffffffffffffffffffffffffffffffffff167f8be0079c531659141344cd1fd0a4f28419497f9722a3daafe3b4186f6b6457e060405160405180910390a35050565b620002476200016960201b60201c565b73ffffffffffffffffffffffffffffffffffffffff166200026d6200038d60201b60201c565b73ffffffffffffffffffffffffffffffffffffffff1614620002c6576040517f08c379a0000000000000000000000000000000000000000000000000000000008152600401620002bd90620005d0565b60405180910390fd5b80600b9080519060200190620002de929190620003b7565b5050565b620002f26200016960201b60201c565b73ffffffffffffffffffffffffffffffffffffffff16620003186200038d60201b60201c565b73ffffffffffffffffffffffffffffffffffffffff161462000371576040517f08c379a00000000000000000000000000000000000000000000000000000000081526004016200036890620005d0565b60405180910390fd5b806011908051906020019062000389929190620003b7565b5050565b6000600660009054906101000a900473ffffffffffffffffffffffffffffffffffffffff16905090565b828054620003c59062000698565b90600052602060002090601f016020900481019282620003e9576000855562000435565b82601f106200040457805160ff191683800117855562000435565b8280016001018555821562000435579182015b828111156200043457825182559160200191906001019062000417565b5b50905062000444919062000448565b5090565b5b808211156200046357600081600090555060010162000449565b5090565b60006200047e62000478846200061b565b620005f2565b9050828152602081018484840111156200049757600080fd5b620004a484828562000662565b509392505050565b600082601f830112620004be57600080fd5b8151620004d084826020860162000467565b91505092915050565b60008060008060808587031215620004f057600080fd5b600085015167ffffffffffffffff8111156200050b57600080fd5b6200051987828801620004ac565b945050602085015167ffffffffffffffff8111156200053757600080fd5b6200054587828801620004ac565b935050604085015167ffffffffffffffff8111156200056357600080fd5b6200057187828801620004ac565b925050606085015167ffffffffffffffff8111156200058f57600080fd5b6200059d87828801620004ac565b91505092959194509250565b6000620005b860208362000651565b9150620005c58262000773565b602082019050919050565b60006020820190508181036000830152620005eb81620005a9565b9050919050565b6000620005fe62000611565b90506200060c8282620006ce565b919050565b6000604051905090565b600067ffffffffffffffff82111562000639576200063862000733565b5b620006448262000762565b9050602081019050919050565b600082825260208201905092915050565b60005b838110156200068257808201518184015260208101905062000665565b8381111562000692576000848401525b50505050565b60006002820490506001821680620006b157607f821691505b60208210811415620006c857620006c762000704565b5b50919050565b620006d98262000762565b810181811067ffffffffffffffff82111715620006fb57620006fa62000733565b5b80604052505050565b7f4e487b7100000000000000000000000000000000000000000000000000000000600052602260045260246000fd5b7f4e487b7100000000000000000000000000000000000000000000000000000000600052604160045260246000fd5b6000601f19601f8301169050919050565b7f4f776e61626c653a2063616c6c6572206973206e6f7420746865206f776e6572600082015250565b6145d180620007ac6000396000f3fe6080604052600436106102515760003560e01c80636c0360eb11610139578063b88d4fde116100b6578063d936547e1161007a578063d936547e14610891578063da3ef23f146108ce578063e14ca353146108f7578063e985e9c514610922578063f2c4ce1e1461095f578063f2fde38b1461098857610251565b8063b88d4fde146107aa578063c6682862146107d3578063c87b56dd146107fe578063c96df7661461083b578063d5abeb011461086657610251565b806391b7f5ed116100fd57806391b7f5ed146106d757806395d89b41146107005780639f181b5e1461072b578063a035b1fe14610756578063a22cb4651461078157610251565b80636c0360eb1461060257806370a082311461062d578063715018a61461066a57806372250380146106815780638da5cb5b146106ac57610251565b80632f745c59116101d2578063438b630011610196578063438b6300146104e05780634a4c560d1461051d578063518302271461054657806355f804b3146105715780635c975abb1461059a5780636352211e146105c557610251565b80632f745c591461041e57806330cc7ae01461045b5780633ccfd60b1461048457806340c10f191461049b57806342842e0e146104b757610251565b8063095ea7b311610219578063095ea7b31461034d57806318160ddd14610376578063239c70ae146103a157806323b872dd146103cc5780632a3f300c146103f557610251565b806301ffc9a71461025657806302329a291461029357806306fdde03146102bc578063081812fc146102e7578063088a4ed014610324575b600080fd5b34801561026257600080fd5b5061027d60048036038101906102789190613247565b6109b1565b60405161028a91906138ab565b60405180910390f35b34801561029f57600080fd5b506102ba60048036038101906102b5919061321e565b610a93565b005b3480156102c857600080fd5b506102d1610b2c565b6040516102de91906138c6565b60405180910390f35b3480156102f357600080fd5b5061030e600480360381019061030991906132da565b610bbe565b60405161031b9190613822565b60405180910390f35b34801561033057600080fd5b5061034b600480360381019061034691906132da565b610c43565b005b34801561035957600080fd5b50610374600480360381019061036f91906131e2565b610cc9565b005b34801561038257600080fd5b5061038b610de1565b6040516103989190613b28565b60405180910390f35b3480156103ad57600080fd5b506103b6610deb565b6040516103c39190613b28565b60405180910390f35b3480156103d857600080fd5b506103f360048036038101906103ee91906130dc565b610df1565b005b34801561040157600080fd5b5061041c6004803603810190610417919061321e565b610e51565b005b34801561042a57600080fd5b50610445600480360381019061044091906131e2565b610eea565b6040516104529190613b28565b60405180910390f35b34801561046757600080fd5b50610482600480360381019061047d9190613077565b610f8f565b005b34801561049057600080fd5b50610499611066565b005b6104b560048036038101906104b091906131e2565b611132565b005b3480156104c357600080fd5b506104de60048036038101906104d991906130dc565b61127a565b005b3480156104ec57600080fd5b5061050760048036038101906105029190613077565b61129a565b6040516105149190613889565b60405180910390f35b34801561052957600080fd5b50610544600480360381019061053f9190613077565b611394565b005b34801561055257600080fd5b5061055b61146b565b60405161056891906138ab565b60405180910390f35b34801561057d57600080fd5b5061059860048036038101906105939190613299565b61147e565b005b3480156105a657600080fd5b506105af611514565b6040516105bc91906138ab565b60405180910390f35b3480156105d157600080fd5b506105ec60048036038101906105e791906132da565b611527565b6040516105f99190613822565b60405180910390f35b34801561060e57600080fd5b506106176115d9565b60405161062491906138c6565b60405180910390f35b34801561063957600080fd5b50610654600480360381019061064f9190613077565b611667565b6040516106619190613b28565b60405180910390f35b34801561067657600080fd5b5061067f61171f565b005b34801561068d57600080fd5b506106966117a7565b6040516106a391906138c6565b60405180910390f35b3480156106b857600080fd5b506106c1611835565b6040516106ce9190613822565b60405180910390f35b3480156106e357600080fd5b506106fe60048036038101906106f991906132da565b61185f565b005b34801561070c57600080fd5b506107156118e5565b60405161072291906138c6565b60405180910390f35b34801561073757600080fd5b50610740611977565b60405161074d9190613b28565b60405180910390f35b34801561076257600080fd5b5061076b611988565b6040516107789190613b28565b60405180910390f35b34801561078d57600080fd5b506107a860048036038101906107a391906131a6565b61198e565b005b3480156107b657600080fd5b506107d160048036038101906107cc919061312b565b6119a4565b005b3480156107df57600080fd5b506107e8611a06565b6040516107f591906138c6565b60405180910390f35b34801561080a57600080fd5b50610825600480360381019061082091906132da565b611a94565b60405161083291906138c6565b60405180910390f35b34801561084757600080fd5b50610850611bed565b60405161085d91906138c6565b60405180910390f35b34801561087257600080fd5b5061087b611c09565b6040516108889190613b28565b60405180910390f35b34801561089d57600080fd5b506108b860048036038101906108b39190613077565b611c0f565b6040516108c591906138ab565b60405180910390f35b3480156108da57600080fd5b506108f560048036038101906108f09190613299565b611c2f565b005b34801561090357600080fd5b5061090c611cc5565b6040516109199190613b28565b60405180910390f35b34801561092e57600080fd5b50610949600480360381019061094491906130a0565b611ce6565b60405161095691906138ab565b60405180910390f35b34801561096b57600080fd5b5061098660048036038101906109819190613299565b611d7a565b005b34801561099457600080fd5b506109af60048036038101906109aa9190613077565b611e10565b005b60007f80ac58cd000000000000000000000000000000000000000000000000000000007bffffffffffffffffffffffffffffffffffffffffffffffffffffffff1916827bffffffffffffffffffffffffffffffffffffffffffffffffffffffff19161480610a7c57507f5b5e139f000000000000000000000000000000000000000000000000000000007bffffffffffffffffffffffffffffffffffffffffffffffffffffffff1916827bffffffffffffffffffffffffffffffffffffffffffffffffffffffff1916145b80610a8c5750610a8b82611f08565b5b9050919050565b610a9b611f72565b73ffffffffffffffffffffffffffffffffffffffff16610ab9611835565b73ffffffffffffffffffffffffffffffffffffffff1614610b0f576040517f08c379a0000000000000000000000000000000000000000000000000000000008152600401610b0690613aa8565b60405180910390fd5b80601060006101000a81548160ff02191690831515021790555050565b606060008054610b3b90613e38565b80601f0160208091040260200160405190810160405280929190818152602001828054610b6790613e38565b8015610bb45780601f10610b8957610100808354040283529160200191610bb4565b820191906000526020600020905b815481529060010190602001808311610b9757829003601f168201915b5050505050905090565b6000610bc982611f7a565b610c08576040517f08c379a0000000000000000000000000000000000000000000000000000000008152600401610bff90613a88565b60405180910390fd5b6004600083815260200190815260200160002060009054906101000a900473ffffffffffffffffffffffffffffffffffffffff169050919050565b610c4b611f72565b73ffffffffffffffffffffffffffffffffffffffff16610c69611835565b73ffffffffffffffffffffffffffffffffffffffff1614610cbf576040517f08c379a0000000000000000000000000000000000000000000000000000000008152600401610cb690613aa8565b60405180910390fd5b80600f8190555050565b6000610cd482611527565b90508073ffffffffffffffffffffffffffffffffffffffff168373ffffffffffffffffffffffffffffffffffffffff161415610d45576040517f08c379a0000000000000000000000000000000000000000000000000000000008152600401610d3c90613ae8565b60405180910390fd5b8073ffffffffffffffffffffffffffffffffffffffff16610d64611f72565b73ffffffffffffffffffffffffffffffffffffffff161480610d935750610d9281610d8d611f72565b611ce6565b5b610dd2576040517f08c379a0000000000000000000000000000000000000000000000000000000008152600401610dc990613a08565b60405180910390fd5b610ddc8383611fe6565b505050565b6000600854905090565b600f5481565b610e02610dfc611f72565b8261209f565b610e41576040517f08c379a0000000000000000000000000000000000000000000000000000000008152600401610e3890613b08565b60405180910390fd5b610e4c83838361217d565b505050565b610e59611f72565b73ffffffffffffffffffffffffffffffffffffffff16610e77611835565b73ffffffffffffffffffffffffffffffffffffffff1614610ecd576040517f08c379a0000000000000000000000000000000000000000000000000000000008152600401610ec490613aa8565b60405180910390fd5b80601060016101000a81548160ff02191690831515021790555050565b6000610ef583611667565b8210610f36576040517f08c379a0000000000000000000000000000000000000000000000000000000008152600401610f2d906138e8565b60405180910390fd5b601360008473ffffffffffffffffffffffffffffffffffffffff1673ffffffffffffffffffffffffffffffffffffffff168152602001908152602001600020600083815260200190815260200160002054905092915050565b610f97611f72565b73ffffffffffffffffffffffffffffffffffffffff16610fb5611835565b73ffffffffffffffffffffffffffffffffffffffff161461100b576040517f08c379a000000000000000000000000000000000000000000000000000000000815260040161100290613aa8565b60405180910390fd5b6000601260008373ffffffffffffffffffffffffffffffffffffffff1673ffffffffffffffffffffffffffffffffffffffff16815260200190815260200160002060006101000a81548160ff02191690831515021790555050565b61106e611f72565b73ffffffffffffffffffffffffffffffffffffffff1661108c611835565b73ffffffffffffffffffffffffffffffffffffffff16146110e2576040517f08c379a00000000000000000000000000000000000000000000000000000000081526004016110d990613aa8565b60405180910390fd5b6110ea611835565b73ffffffffffffffffffffffffffffffffffffffff166108fc479081150290604051600060405180830381858888f1935050505015801561112f573d6000803e3d6000fd5b50565b600061113c611977565b9050601060009054906101000a900460ff161561115857600080fd5b6000821161116557600080fd5b600f5482111561117457600080fd5b600e5482826111839190613c5b565b111561118e57600080fd5b611196611835565b73ffffffffffffffffffffffffffffffffffffffff163373ffffffffffffffffffffffffffffffffffffffff161461123c5760011515601260003373ffffffffffffffffffffffffffffffffffffffff1673ffffffffffffffffffffffffffffffffffffffff16815260200190815260200160002060009054906101000a900460ff1615151461123b5781600d5461122e9190613ce2565b34101561123a57600080fd5b5b5b6000600190505b8281116112745760006112546123e4565b90506112608582612572565b50808061126c90613e9b565b915050611243565b50505050565b611295838383604051806020016040528060008152506119a4565b505050565b606060006112a783611667565b905060008167ffffffffffffffff8111156112eb577f4e487b7100000000000000000000000000000000000000000000000000000000600052604160045260246000fd5b6040519080825280602002602001820160405280156113195781602001602082028036833780820191505090505b50905060005b82811015611389576113318582610eea565b82828151811061136a577f4e487b7100000000000000000000000000000000000000000000000000000000600052603260045260246000fd5b602002602001018181525050808061138190613e9b565b91505061131f565b508092505050919050565b61139c611f72565b73ffffffffffffffffffffffffffffffffffffffff166113ba611835565b73ffffffffffffffffffffffffffffffffffffffff1614611410576040517f08c379a000000000000000000000000000000000000000000000000000000000815260040161140790613aa8565b60405180910390fd5b6001601260008373ffffffffffffffffffffffffffffffffffffffff1673ffffffffffffffffffffffffffffffffffffffff16815260200190815260200160002060006101000a81548160ff02191690831515021790555050565b601060019054906101000a900460ff1681565b611486611f72565b73ffffffffffffffffffffffffffffffffffffffff166114a4611835565b73ffffffffffffffffffffffffffffffffffffffff16146114fa576040517f08c379a00000000000000000000000000000000000000000000000000000000081526004016114f190613aa8565b60405180910390fd5b80600b9080519060200190611510929190612e9b565b5050565b601060009054906101000a900460ff1681565b6000806002600084815260200190815260200160002060009054906101000a900473ffffffffffffffffffffffffffffffffffffffff169050600073ffffffffffffffffffffffffffffffffffffffff168173ffffffffffffffffffffffffffffffffffffffff1614156115d0576040517f08c379a00000000000000000000000000000000000000000000000000000000081526004016115c790613a48565b60405180910390fd5b80915050919050565b600b80546115e690613e38565b80601f016020809104026020016040519081016040528092919081815260200182805461161290613e38565b801561165f5780601f106116345761010080835404028352916020019161165f565b820191906000526020600020905b81548152906001019060200180831161164257829003601f168201915b505050505081565b60008073ffffffffffffffffffffffffffffffffffffffff168273ffffffffffffffffffffffffffffffffffffffff1614156116d8576040517f08c379a00000000000000000000000000000000000000000000000000000000081526004016116cf90613a28565b60405180910390fd5b600360008373ffffffffffffffffffffffffffffffffffffffff1673ffffffffffffffffffffffffffffffffffffffff168152602001908152602001600020549050919050565b611727611f72565b73ffffffffffffffffffffffffffffffffffffffff16611745611835565b73ffffffffffffffffffffffffffffffffffffffff161461179b576040517f08c379a000000000000000000000000000000000000000000000000000000000815260040161179290613aa8565b60405180910390fd5b6117a56000612590565b565b601180546117b490613e38565b80601f01602080910402602001604051908101604052809291908181526020018280546117e090613e38565b801561182d5780601f106118025761010080835404028352916020019161182d565b820191906000526020600020905b81548152906001019060200180831161181057829003601f168201915b505050505081565b6000600660009054906101000a900473ffffffffffffffffffffffffffffffffffffffff16905090565b611867611f72565b73ffffffffffffffffffffffffffffffffffffffff16611885611835565b73ffffffffffffffffffffffffffffffffffffffff16146118db576040517f08c379a00000000000000000000000000000000000000000000000000000000081526004016118d290613aa8565b60405180910390fd5b80600d8190555050565b6060600180546118f490613e38565b80601f016020809104026020016040519081016040528092919081815260200182805461192090613e38565b801561196d5780601f106119425761010080835404028352916020019161196d565b820191906000526020600020905b81548152906001019060200180831161195057829003601f168201915b5050505050905090565b60006119836007612656565b905090565b600d5481565b6119a0611999611f72565b8383612664565b5050565b6119b56119af611f72565b8361209f565b6119f4576040517f08c379a00000000000000000000000000000000000000000000000000000000081526004016119eb90613b08565b60405180910390fd5b611a00848484846127d1565b50505050565b600c8054611a1390613e38565b80601f0160208091040260200160405190810160405280929190818152602001828054611a3f90613e38565b8015611a8c5780601f10611a6157610100808354040283529160200191611a8c565b820191906000526020600020905b815481529060010190602001808311611a6f57829003601f168201915b505050505081565b6060611a9f82611f7a565b611ade576040517f08c379a0000000000000000000000000000000000000000000000000000000008152600401611ad590613ac8565b60405180910390fd5b60001515601060019054906101000a900460ff1615151415611b8c5760118054611b0790613e38565b80601f0160208091040260200160405190810160405280929190818152602001828054611b3390613e38565b8015611b805780601f10611b5557610100808354040283529160200191611b80565b820191906000526020600020905b815481529060010190602001808311611b6357829003601f168201915b50505050509050611be8565b6000611b9661282d565b90506000815111611bb65760405180602001604052806000815250611be4565b80611bc0846128bf565b600c604051602001611bd4939291906137f1565b6040516020818303038152906040525b9150505b919050565b60405180606001604052806040815260200161455c6040913981565b600e5481565b60126020528060005260406000206000915054906101000a900460ff1681565b611c37611f72565b73ffffffffffffffffffffffffffffffffffffffff16611c55611835565b73ffffffffffffffffffffffffffffffffffffffff1614611cab576040517f08c379a0000000000000000000000000000000000000000000000000000000008152600401611ca290613aa8565b60405180910390fd5b80600c9080519060200190611cc1929190612e9b565b5050565b6000611ccf611977565b611cd7610de1565b611ce19190613d3c565b905090565b6000600560008473ffffffffffffffffffffffffffffffffffffffff1673ffffffffffffffffffffffffffffffffffffffff16815260200190815260200160002060008373ffffffffffffffffffffffffffffffffffffffff1673ffffffffffffffffffffffffffffffffffffffff16815260200190815260200160002060009054906101000a900460ff16905092915050565b611d82611f72565b73ffffffffffffffffffffffffffffffffffffffff16611da0611835565b73ffffffffffffffffffffffffffffffffffffffff1614611df6576040517f08c379a0000000000000000000000000000000000000000000000000000000008152600401611ded90613aa8565b60405180910390fd5b8060119080519060200190611e0c929190612e9b565b5050565b611e18611f72565b73ffffffffffffffffffffffffffffffffffffffff16611e36611835565b73ffffffffffffffffffffffffffffffffffffffff1614611e8c576040517f08c379a0000000000000000000000000000000000000000000000000000000008152600401611e8390613aa8565b60405180910390fd5b600073ffffffffffffffffffffffffffffffffffffffff168173ffffffffffffffffffffffffffffffffffffffff161415611efc576040517f08c379a0000000000000000000000000000000000000000000000000000000008152600401611ef390613928565b60405180910390fd5b611f0581612590565b50565b60007f01ffc9a7000000000000000000000000000000000000000000000000000000007bffffffffffffffffffffffffffffffffffffffffffffffffffffffff1916827bffffffffffffffffffffffffffffffffffffffffffffffffffffffff1916149050919050565b600033905090565b60008073ffffffffffffffffffffffffffffffffffffffff166002600084815260200190815260200160002060009054906101000a900473ffffffffffffffffffffffffffffffffffffffff1673ffffffffffffffffffffffffffffffffffffffff1614159050919050565b816004600083815260200190815260200160002060006101000a81548173ffffffffffffffffffffffffffffffffffffffff021916908373ffffffffffffffffffffffffffffffffffffffff160217905550808273ffffffffffffffffffffffffffffffffffffffff1661205983611527565b73ffffffffffffffffffffffffffffffffffffffff167f8c5be1e5ebec7d5bd14f71427d1e84f3dd0314c0f7b2291e5b200ac8c7c3b92560405160405180910390a45050565b60006120aa82611f7a565b6120e9576040517f08c379a00000000000000000000000000000000000000000000000000000000081526004016120e0906139e8565b60405180910390fd5b60006120f483611527565b90508073ffffffffffffffffffffffffffffffffffffffff168473ffffffffffffffffffffffffffffffffffffffff16148061213657506121358185611ce6565b5b8061217457508373ffffffffffffffffffffffffffffffffffffffff1661215c84610bbe565b73ffffffffffffffffffffffffffffffffffffffff16145b91505092915050565b8273ffffffffffffffffffffffffffffffffffffffff1661219d82611527565b73ffffffffffffffffffffffffffffffffffffffff16146121f3576040517f08c379a00000000000000000000000000000000000000000000000000000000081526004016121ea90613948565b60405180910390fd5b600073ffffffffffffffffffffffffffffffffffffffff168273ffffffffffffffffffffffffffffffffffffffff161415612263576040517f08c379a000000000000000000000000000000000000000000000000000000000815260040161225a90613988565b60405180910390fd5b61226e838383612a6c565b612279600082611fe6565b6001600360008573ffffffffffffffffffffffffffffffffffffffff1673ffffffffffffffffffffffffffffffffffffffff16815260200190815260200160002060008282546122c99190613d3c565b925050819055506001600360008473ffffffffffffffffffffffffffffffffffffffff1673ffffffffffffffffffffffffffffffffffffffff16815260200190815260200160002060008282546123209190613c5b565b92505081905550816002600083815260200190815260200160002060006101000a81548173ffffffffffffffffffffffffffffffffffffffff021916908373ffffffffffffffffffffffffffffffffffffffff160217905550808273ffffffffffffffffffffffffffffffffffffffff168473ffffffffffffffffffffffffffffffffffffffff167fddf252ad1be2c89b69c2b068fc378daa952ba7f163c4a11628f55a4df523b3ef60405160405180910390a46123df838383612a71565b505050565b6000806123ef611cc5565b1161242f576040517f08c379a0000000000000000000000000000000000000000000000000000000008152600401612426906139c8565b60405180910390fd5b6000612439611977565b612441610de1565b61244b9190613d3c565b90506000813341444542604051602001612469959493929190613792565b6040516020818303038152906040528051906020012060001c61248c9190613f24565b9050600080600960008481526020019081526020016000205414156124b3578190506124ca565b600960008381526020019081526020016000205490505b6000600960006001866124dd9190613d3c565b815260200190815260200160002054141561251b576001836124ff9190613d3c565b6009600084815260200190815260200160002081905550612553565b6009600060018561252c9190613d3c565b81526020019081526020016000205460096000848152602001908152602001600020819055505b61255b612a76565b50600a548161256a9190613c5b565b935050505090565b61258c828260405180602001604052806000815250612a96565b5050565b6000600660009054906101000a900473ffffffffffffffffffffffffffffffffffffffff16905081600660006101000a81548173ffffffffffffffffffffffffffffffffffffffff021916908373ffffffffffffffffffffffffffffffffffffffff1602179055508173ffffffffffffffffffffffffffffffffffffffff168173ffffffffffffffffffffffffffffffffffffffff167f8be0079c531659141344cd1fd0a4f28419497f9722a3daafe3b4186f6b6457e060405160405180910390a35050565b600081600001549050919050565b8173ffffffffffffffffffffffffffffffffffffffff168373ffffffffffffffffffffffffffffffffffffffff1614156126d3576040517f08c379a00000000000000000000000000000000000000000000000000000000081526004016126ca906139a8565b60405180910390fd5b80600560008573ffffffffffffffffffffffffffffffffffffffff1673ffffffffffffffffffffffffffffffffffffffff16815260200190815260200160002060008473ffffffffffffffffffffffffffffffffffffffff1673ffffffffffffffffffffffffffffffffffffffff16815260200190815260200160002060006101000a81548160ff0219169083151502179055508173ffffffffffffffffffffffffffffffffffffffff168373ffffffffffffffffffffffffffffffffffffffff167f17307eab39ab6107e8899845ad3d59bd9653f200f220920489ca2b5937696c31836040516127c491906138ab565b60405180910390a3505050565b6127dc84848461217d565b6127e884848484612af1565b612827576040517f08c379a000000000000000000000000000000000000000000000000000000000815260040161281e90613908565b60405180910390fd5b50505050565b6060600b805461283c90613e38565b80601f016020809104026020016040519081016040528092919081815260200182805461286890613e38565b80156128b55780601f1061288a576101008083540402835291602001916128b5565b820191906000526020600020905b81548152906001019060200180831161289857829003601f168201915b5050505050905090565b60606000821415612907576040518060400160405280600181526020017f30000000000000000000000000000000000000000000000000000000000000008152509050612a67565b600082905060005b6000821461293957808061292290613e9b565b915050600a826129329190613cb1565b915061290f565b60008167ffffffffffffffff81111561297b577f4e487b7100000000000000000000000000000000000000000000000000000000600052604160045260246000fd5b6040519080825280601f01601f1916602001820160405280156129ad5781602001600182028036833780820191505090505b5090505b60008514612a60576001826129c69190613d3c565b9150600a856129d59190613f24565b60306129e19190613c5b565b60f81b818381518110612a1d577f4e487b7100000000000000000000000000000000000000000000000000000000600052603260045260246000fd5b60200101907effffffffffffffffffffffffffffffffffffffffffffffffffffffffffffff1916908160001a905350600a85612a599190613cb1565b94506129b1565b8093505050505b919050565b505050565b505050565b600080612a836007612656565b9050612a8f6007612c88565b8091505090565b612aa08383612c9e565b612aad6000848484612af1565b612aec576040517f08c379a0000000000000000000000000000000000000000000000000000000008152600401612ae390613908565b60405180910390fd5b505050565b6000612b128473ffffffffffffffffffffffffffffffffffffffff16612e78565b15612c7b578373ffffffffffffffffffffffffffffffffffffffff1663150b7a02612b3b611f72565b8786866040518563ffffffff1660e01b8152600401612b5d949392919061383d565b602060405180830381600087803b158015612b7757600080fd5b505af1925050508015612ba857506040513d601f19601f82011682018060405250810190612ba59190613270565b60015b612c2b573d8060008114612bd8576040519150601f19603f3d011682016040523d82523d6000602084013e612bdd565b606091505b50600081511415612c23576040517f08c379a0000000000000000000000000000000000000000000000000000000008152600401612c1a90613908565b60405180910390fd5b805181602001fd5b63150b7a0260e01b7bffffffffffffffffffffffffffffffffffffffffffffffffffffffff1916817bffffffffffffffffffffffffffffffffffffffffffffffffffffffff191614915050612c80565b600190505b949350505050565b6001816000016000828254019250508190555050565b600073ffffffffffffffffffffffffffffffffffffffff168273ffffffffffffffffffffffffffffffffffffffff161415612d0e576040517f08c379a0000000000000000000000000000000000000000000000000000000008152600401612d0590613a68565b60405180910390fd5b612d1781611f7a565b15612d57576040517f08c379a0000000000000000000000000000000000000000000000000000000008152600401612d4e90613968565b60405180910390fd5b612d6360008383612a6c565b6001600360008473ffffffffffffffffffffffffffffffffffffffff1673ffffffffffffffffffffffffffffffffffffffff1681526020019081526020016000206000828254612db39190613c5b565b92505081905550816002600083815260200190815260200160002060006101000a81548173ffffffffffffffffffffffffffffffffffffffff021916908373ffffffffffffffffffffffffffffffffffffffff160217905550808273ffffffffffffffffffffffffffffffffffffffff16600073ffffffffffffffffffffffffffffffffffffffff167fddf252ad1be2c89b69c2b068fc378daa952ba7f163c4a11628f55a4df523b3ef60405160405180910390a4612e7460008383612a71565b5050565b6000808273ffffffffffffffffffffffffffffffffffffffff163b119050919050565b828054612ea790613e38565b90600052602060002090601f016020900481019282612ec95760008555612f10565b82601f10612ee257805160ff1916838001178555612f10565b82800160010185558215612f10579182015b82811115612f0f578251825591602001919060010190612ef4565b5b509050612f1d9190612f21565b5090565b5b80821115612f3a576000816000905550600101612f22565b5090565b6000612f51612f4c84613b68565b613b43565b905082815260208101848484011115612f6957600080fd5b612f74848285613df6565b509392505050565b6000612f8f612f8a84613b99565b613b43565b905082815260208101848484011115612fa757600080fd5b612fb2848285613df6565b509392505050565b600081359050612fc9816144ff565b92915050565b600081359050612fde81614516565b92915050565b600081359050612ff38161452d565b92915050565b6000815190506130088161452d565b92915050565b600082601f83011261301f57600080fd5b813561302f848260208601612f3e565b91505092915050565b600082601f83011261304957600080fd5b8135613059848260208601612f7c565b91505092915050565b60008135905061307181614544565b92915050565b60006020828403121561308957600080fd5b600061309784828501612fba565b91505092915050565b600080604083850312156130b357600080fd5b60006130c185828601612fba565b92505060206130d285828601612fba565b9150509250929050565b6000806000606084860312156130f157600080fd5b60006130ff86828701612fba565b935050602061311086828701612fba565b925050604061312186828701613062565b9150509250925092565b6000806000806080858703121561314157600080fd5b600061314f87828801612fba565b945050602061316087828801612fba565b935050604061317187828801613062565b925050606085013567ffffffffffffffff81111561318e57600080fd5b61319a8782880161300e565b91505092959194509250565b600080604083850312156131b957600080fd5b60006131c785828601612fba565b92505060206131d885828601612fcf565b9150509250929050565b600080604083850312156131f557600080fd5b600061320385828601612fba565b925050602061321485828601613062565b9150509250929050565b60006020828403121561323057600080fd5b600061323e84828501612fcf565b91505092915050565b60006020828403121561325957600080fd5b600061326784828501612fe4565b91505092915050565b60006020828403121561328257600080fd5b600061329084828501612ff9565b91505092915050565b6000602082840312156132ab57600080fd5b600082013567ffffffffffffffff8111156132c557600080fd5b6132d184828501613038565b91505092915050565b6000602082840312156132ec57600080fd5b60006132fa84828501613062565b91505092915050565b600061330f838361375d565b60208301905092915050565b61332c61332782613d82565b613ef6565b82525050565b61333b81613d70565b82525050565b61335261334d82613d70565b613ee4565b82525050565b600061336382613bef565b61336d8185613c1d565b935061337883613bca565b8060005b838110156133a95781516133908882613303565b975061339b83613c10565b92505060018101905061337c565b5085935050505092915050565b6133bf81613d94565b82525050565b60006133d082613bfa565b6133da8185613c2e565b93506133ea818560208601613e05565b6133f381614011565b840191505092915050565b600061340982613c05565b6134138185613c3f565b9350613423818560208601613e05565b61342c81614011565b840191505092915050565b600061344282613c05565b61344c8185613c50565b935061345c818560208601613e05565b80840191505092915050565b6000815461347581613e38565b61347f8186613c50565b9450600182166000811461349a57600181146134ab576134de565b60ff198316865281860193506134de565b6134b485613bda565b60005b838110156134d6578154818901526001820191506020810190506134b7565b838801955050505b50505092915050565b60006134f4602b83613c3f565b91506134ff8261402f565b604082019050919050565b6000613517603283613c3f565b91506135228261407e565b604082019050919050565b600061353a602683613c3f565b9150613545826140cd565b604082019050919050565b600061355d602583613c3f565b91506135688261411c565b604082019050919050565b6000613580601c83613c3f565b915061358b8261416b565b602082019050919050565b60006135a3602483613c3f565b91506135ae82614194565b604082019050919050565b60006135c6601983613c3f565b91506135d1826141e3565b602082019050919050565b60006135e9601883613c3f565b91506135f48261420c565b602082019050919050565b600061360c602c83613c3f565b915061361782614235565b604082019050919050565b600061362f603883613c3f565b915061363a82614284565b604082019050919050565b6000613652602a83613c3f565b915061365d826142d3565b604082019050919050565b6000613675602983613c3f565b915061368082614322565b604082019050919050565b6000613698602083613c3f565b91506136a382614371565b602082019050919050565b60006136bb602c83613c3f565b91506136c68261439a565b604082019050919050565b60006136de602083613c3f565b91506136e9826143e9565b602082019050919050565b6000613701602f83613c3f565b915061370c82614412565b604082019050919050565b6000613724602183613c3f565b915061372f82614461565b604082019050919050565b6000613747603183613c3f565b9150613752826144b0565b604082019050919050565b61376681613dec565b82525050565b61377581613dec565b82525050565b61378c61378782613dec565b613f1a565b82525050565b600061379e8288613341565b6014820191506137ae828761331b565b6014820191506137be828661377b565b6020820191506137ce828561377b565b6020820191506137de828461377b565b6020820191508190509695505050505050565b60006137fd8286613437565b91506138098285613437565b91506138158284613468565b9150819050949350505050565b60006020820190506138376000830184613332565b92915050565b60006080820190506138526000830187613332565b61385f6020830186613332565b61386c604083018561376c565b818103606083015261387e81846133c5565b905095945050505050565b600060208201905081810360008301526138a38184613358565b905092915050565b60006020820190506138c060008301846133b6565b92915050565b600060208201905081810360008301526138e081846133fe565b905092915050565b60006020820190508181036000830152613901816134e7565b9050919050565b600060208201905081810360008301526139218161350a565b9050919050565b600060208201905081810360008301526139418161352d565b9050919050565b6000602082019050818103600083015261396181613550565b9050919050565b6000602082019050818103600083015261398181613573565b9050919050565b600060208201905081810360008301526139a181613596565b9050919050565b600060208201905081810360008301526139c1816135b9565b9050919050565b600060208201905081810360008301526139e1816135dc565b9050919050565b60006020820190508181036000830152613a01816135ff565b9050919050565b60006020820190508181036000830152613a2181613622565b9050919050565b60006020820190508181036000830152613a4181613645565b9050919050565b60006020820190508181036000830152613a6181613668565b9050919050565b60006020820190508181036000830152613a818161368b565b9050919050565b60006020820190508181036000830152613aa1816136ae565b9050919050565b60006020820190508181036000830152613ac1816136d1565b9050919050565b60006020820190508181036000830152613ae1816136f4565b9050919050565b60006020820190508181036000830152613b0181613717565b9050919050565b60006020820190508181036000830152613b218161373a565b9050919050565b6000602082019050613b3d600083018461376c565b92915050565b6000613b4d613b5e565b9050613b598282613e6a565b919050565b6000604051905090565b600067ffffffffffffffff821115613b8357613b82613fe2565b5b613b8c82614011565b9050602081019050919050565b600067ffffffffffffffff821115613bb457613bb3613fe2565b5b613bbd82614011565b9050602081019050919050565b6000819050602082019050919050565b60008190508160005260206000209050919050565b600081519050919050565b600081519050919050565b600081519050919050565b6000602082019050919050565b600082825260208201905092915050565b600082825260208201905092915050565b600082825260208201905092915050565b600081905092915050565b6000613c6682613dec565b9150613c7183613dec565b9250827fffffffffffffffffffffffffffffffffffffffffffffffffffffffffffffffff03821115613ca657613ca5613f55565b5b828201905092915050565b6000613cbc82613dec565b9150613cc783613dec565b925082613cd757613cd6613f84565b5b828204905092915050565b6000613ced82613dec565b9150613cf883613dec565b9250817fffffffffffffffffffffffffffffffffffffffffffffffffffffffffffffffff0483118215151615613d3157613d30613f55565b5b828202905092915050565b6000613d4782613dec565b9150613d5283613dec565b925082821015613d6557613d64613f55565b5b828203905092915050565b6000613d7b82613dcc565b9050919050565b6000613d8d82613dcc565b9050919050565b60008115159050919050565b60007fffffffff0000000000000000000000000000000000000000000000000000000082169050919050565b600073ffffffffffffffffffffffffffffffffffffffff82169050919050565b6000819050919050565b82818337600083830152505050565b60005b83811015613e23578082015181840152602081019050613e08565b83811115613e32576000848401525b50505050565b60006002820490506001821680613e5057607f821691505b60208210811415613e6457613e63613fb3565b5b50919050565b613e7382614011565b810181811067ffffffffffffffff82111715613e9257613e91613fe2565b5b80604052505050565b6000613ea682613dec565b91507fffffffffffffffffffffffffffffffffffffffffffffffffffffffffffffffff821415613ed957613ed8613f55565b5b600182019050919050565b6000613eef82613f08565b9050919050565b6000613f0182613f08565b9050919050565b6000613f1382614022565b9050919050565b6000819050919050565b6000613f2f82613dec565b9150613f3a83613dec565b925082613f4a57613f49613f84565b5b828206905092915050565b7f4e487b7100000000000000000000000000000000000000000000000000000000600052601160045260246000fd5b7f4e487b7100000000000000000000000000000000000000000000000000000000600052601260045260246000fd5b7f4e487b7100000000000000000000000000000000000000000000000000000000600052602260045260246000fd5b7f4e487b7100000000000000000000000000000000000000000000000000000000600052604160045260246000fd5b6000601f19601f8301169050919050565b60008160601b9050919050565b7f455243373231456e756d657261626c653a206f776e657220696e646578206f7560008201527f74206f6620626f756e6473000000000000000000000000000000000000000000602082015250565b7f4552433732313a207472616e7366657220746f206e6f6e20455243373231526560008201527f63656976657220696d706c656d656e7465720000000000000000000000000000602082015250565b7f4f776e61626c653a206e6577206f776e657220697320746865207a65726f206160008201527f6464726573730000000000000000000000000000000000000000000000000000602082015250565b7f4552433732313a207472616e736665722066726f6d20696e636f72726563742060008201527f6f776e6572000000000000000000000000000000000000000000000000000000602082015250565b7f4552433732313a20746f6b656e20616c7265616479206d696e74656400000000600082015250565b7f4552433732313a207472616e7366657220746f20746865207a65726f2061646460008201527f7265737300000000000000000000000000000000000000000000000000000000602082015250565b7f4552433732313a20617070726f766520746f2063616c6c657200000000000000600082015250565b7f4e6f206d6f726520746f6b656e7320617661696c61626c650000000000000000600082015250565b7f4552433732313a206f70657261746f7220717565727920666f72206e6f6e657860008201527f697374656e7420746f6b656e0000000000000000000000000000000000000000602082015250565b7f4552433732313a20617070726f76652063616c6c6572206973206e6f74206f7760008201527f6e6572206e6f7220617070726f76656420666f7220616c6c0000000000000000602082015250565b7f4552433732313a2062616c616e636520717565727920666f7220746865207a6560008201527f726f206164647265737300000000000000000000000000000000000000000000602082015250565b7f4552433732313a206f776e657220717565727920666f72206e6f6e657869737460008201527f656e7420746f6b656e0000000000000000000000000000000000000000000000602082015250565b7f4552433732313a206d696e7420746f20746865207a65726f2061646472657373600082015250565b7f4552433732313a20617070726f76656420717565727920666f72206e6f6e657860008201527f697374656e7420746f6b656e0000000000000000000000000000000000000000602082015250565b7f4f776e61626c653a2063616c6c6572206973206e6f7420746865206f776e6572600082015250565b7f4552433732314d657461646174613a2055524920717565727920666f72206e6f60008201527f6e6578697374656e7420746f6b656e0000000000000000000000000000000000602082015250565b7f4552433732313a20617070726f76616c20746f2063757272656e74206f776e6560008201527f7200000000000000000000000000000000000000000000000000000000000000602082015250565b7f4552433732313a207472616e736665722063616c6c6572206973206e6f74206f60008201527f776e6572206e6f7220617070726f766564000000000000000000000000000000602082015250565b61450881613d70565b811461451357600080fd5b50565b61451f81613d94565b811461452a57600080fd5b50565b61453681613da0565b811461454157600080fd5b50565b61454d81613dec565b811461455857600080fd5b5056fe62653061343465333332663562356564663935336431323866373938373136343333653234646230383136356266303035393061383134366361663037323135a26469706673582212208a1d446e3a92fc65089859ecfa42ec718a88bd867e35c665f0dd3553a3f3a16064736f6c63430008040033",
  "linkReferences": {},
  "deployedLinkReferences": {}
}